:100000000C9462000C948A000C948A000C948A0070
:100010000C948A000C948A000C948A000C948A0038
:100020000C948A000C948A000C948A000C948A0028
:100030000C948A000C948A000C948A000C948A0018
:100040000C94D2020C948A000C94A0020C947A02B4
:100050000C948A000C948A000C948A000C948A00F8
:100060000C948A000C948A000000000024002700F1
:100070002A0000000000250028002B0000000008D6
:10008000000201000003040700000000000000005F
:1000900000000000230026002900040404040404D6
:1000A0000404020202020202030303030303010227
:1000B00004081020408001020408102001020408F6
:1000C0001020D30511241FBECFEFD8E0DEBFCDBF77
:1000D00011E0A0E0B1E0EAE9FFE002C005900D9276
:1000E000A232B107D9F721E0A2E2B1E001C01D922E
:1000F000AC3CB207E1F710E0C2E6D0E004C02197C3
:10010000FE010E94C507C136D107C9F70E946103ED
:100110000C94CB070C940000AF92BF92CF92DF9269
:10012000EF92FF920F931F93CF93DF936C017B01AC
:100130008B01040F151FEB015E01AE18BF08C0173D
:10014000D10759F06991D601ED91FC910190F081B0
:10015000E02DC6010995892B79F7C501DF91CF9173
:100160001F910F91FF90EF90DF90CF90BF90AF90D5
:100170000895FC01538D448D252F30E0842F90E0AD
:10018000821B930B541710F0CF9608950197089592
:10019000FC01918D828D981761F0A28DAE0FBF2F5B
:1001A000B11D5D968C91928D9F5F9F73928F90E0B1
:1001B00008958FEF9FEF0895FC01918D828D981720
:1001C00031F0828DE80FF11D858D90E008958FEF5D
:1001D0009FEF0895FC01918D228D892F90E0805C26
:1001E0009F4F821B91098F73992708958FE291E0A9
:1001F0000E94EA0021E0892B09F420E0822F089573
:1002000080E090E0892B29F00E94F60081110C9487
:1002100000000895FC01A48DA80FB92FB11DA35AA9
:10022000BF4F2C91848D90E001968F739927848F16
:10023000A689B7892C93A089B1898C918370806439
:100240008C93938D848D981306C00288F389E02DDA
:1002500080818F7D80830895EF92FF920F931F938B
:10026000CF93DF93EC0181E0888F9B8D8C8D981369
:100270001AC0E889F989808185FF15C09FB7F89475
:10028000EE89FF896083E889F989808183708064C1
:1002900080839FBF81E090E0DF91CF911F910F910C
:1002A000FF90EF900895F62E0B8D10E00F5F1F4F1B
:1002B0000F731127E02E8C8D8E110CC00FB607FC2A
:1002C000FACFE889F989808185FFF5CFCE010E94B8
:1002D0000A01F1CFEB8DEC0FFD2FF11DE35AFF4F1B
:1002E000F0829FB7F8940B8FEA89FB898081806246
:1002F000CFCFCF93DF93EC01888D8823B9F0AA8903
:10030000BB89E889F9898C9185FD03C0808186FDD0
:100310000DC00FB607FCF7CF8C9185FFF2CF80811F
:1003200085FFEDCFCE010E940A01E9CFDF91CF9189
:10033000089590E0FC01E458FF4F2491FC01E25540
:10034000FF4F3491FC01E656FF4FE491EE23C9F0D4
:10035000222339F0233001F1A8F4213019F12230A1
:1003600029F1F0E0EE0FFF1FEE58FF4FA591B49179
:100370008FB7F894EC91611126C030953E233C93E1
:100380008FBF08952730A9F02830C9F0243049F7ED
:10039000809180008F7D03C0809180008F77809353
:1003A0008000DFCF84B58F7784BDDBCF84B58F7DB0
:1003B000FBCF8091B0008F778093B000D2CF809137
:1003C000B0008F7DF9CF3E2BDACFCF93DF9390E053
:1003D000FC01E255FF4F249186569F4FFC0184910A
:1003E0008823D1F090E0880F991FFC01E859FF4F56
:1003F000A591B491FC01EE58FF4FC591D4916111C4
:100400000EC09FB7F8948C91E22FE0958E238C93C9
:100410002881E223E8839FBFDF91CF9108958FB7B2
:10042000F894EC91E22BEC938FBFF6CF3FB7F894A2
:100430008091270190912801A0912901B0912A0172
:1004400026B5A89B05C02F3F19F00196A11DB11D2F
:100450003FBFBA2FA92F982F8827BC01CD01620F6B
:10046000711D811D911D42E0660F771F881F991F26
:100470004A95D1F708958F929F92AF92BF92CF92F3
:10048000DF92EF92FF924B015C010E9416026B011A
:100490007C010E9416026C197D098E099F09683E35
:1004A000734081059105A8F321E0821A9108A10803
:1004B000B10888EEC80E83E0D81EE11CF11C81143F
:1004C0009104A104B10429F7FF90EF90DF90CF9041
:1004D000BF90AF909F908F900895FC0101900020F5
:1004E000E9F73197AF01481B590BBC018FE291E04E
:1004F0000C948C001F920F920FB60F9211242F9321
:100500003F934F935F936F937F938F939F93AF939B
:10051000BF93EF93FF938FE291E00E940A01FF9156
:10052000EF91BF91AF919F918F917F916F915F916B
:100530004F913F912F910F900FBE0F901F901895E4
:100540001F920F920FB60F9211242F938F939F93A8
:10055000EF93FF93E0913F01F09140018081E091A2
:100560004501F091460182FD1BC0908180914801B8
:100570008F5F8F7320914901821741F0E09148010C
:10058000F0E0E15DFE4F958F80934801FF91EF9180
:100590009F918F912F910F900FBE0F901F901895E4
:1005A0008081F4CF1F920F920FB60F9211242F93D8
:1005B0003F938F939F93AF93BF938091230190912B
:1005C0002401A0912501B09126013091220123E060
:1005D000230F2D3758F50196A11DB11D209322013F
:1005E0008093230190932401A0932501B0932601C9
:1005F0008091270190912801A0912901B0912A01B1
:100600000196A11DB11D8093270190932801A0930D
:100610002901B0932A01BF91AF919F918F913F9192
:100620002F910F900FBE0F901F90189526E8230F63
:100630000296A11DB11DD2CFCF92DF92EF92FF9211
:100640000F931F93E82FF92F05C0015011092109BD
:10065000310961F1908196239417B9F305C00150D7
:1006600011092109310911F1908196239413F7CFD3
:10067000C12CD12CE12CF12C0AC08FEFC81AD80A5A
:10068000E80AF80A0C151D052E053F0579F0808152
:100690008623841791F36C2D7D2D8E2D9F2D1F9118
:1006A0000F91FF90EF90DF90CF90089560E070E0A1
:1006B00080E090E01F910F91FF90EF90DF90CF903E
:1006C0000895CF93DF93CDB7DEB7A1970FB6F89417
:1006D000DEBF0FBECDBF789484B5826084BD84B583
:1006E000816084BD85B5826085BD85B5816085BD2D
:1006F00080916E00816080936E00109281008091E5
:10070000810082608093810080918100816080936C
:100710008100809180008160809380008091B10091
:1007200084608093B1008091B00081608093B000BC
:1007300080917A00846080937A0080917A00826050
:1007400080937A0080917A00816080937A00809112
:100750007A00806880937A001092C10061E082E0A4
:100760000E94E50161E08BE00E94E50160E08CE021
:100770000E94E50113E061E0812F0E94E5011F5F07
:100780001B30C9F7E0913F01F091400182E0808386
:10079000E0913B01F0913C011082E0913D01F0912C
:1007A0003E018FEC808310924701E0914301F0916C
:1007B000440186E08083E0914101F0914201808113
:1007C00080618083E0914101F091420180818860E5
:1007D0008083E0914101F0914201808180688083B3
:1007E000E0914101F091420180818F7D80839FE003
:1007F000292E312C2AE0422E512C612C712C34E10F
:10080000832E912CA12CB12C60E08BE00E949901E9
:10081000C1010197F1F761E08BE00E94990183E249
:1008200090E00197F1F760E08BE00E949901EAEB1C
:10083000F0E06491E6EAF0E08491E82FF0E0EE0F5A
:10084000FF1FE057FF4F8591949100E412E42FE0E1
:1008500030E0462F0E941C0361157105810591054A
:1008600029F06F5F7F4F8F4F9F4F9F700E94AA06A6
:100870002DEC3CEC48EE51E40E94000620E030E014
:1008800040E05FE30E9436070E9472066531710501
:10089000810591050CF09EC060932B0170932C0193
:1008A00080932D0190932E0180912B0190912C012A
:1008B000A0912D01B0912E01AC01BD014F50510905
:1008C00061097109453051056105710508F0AFC036
:1008D00061E083E00E94990161E08AE00E94990151
:1008E00060E084E00E94990160E085E00E94990147
:1008F00060E086E00E94990160E087E00E94990133
:1009000060E088E00E94990160E089E00E9499011E
:1009100061E082E00E94990164E670E080E090E08E
:100920000E943B0260E082E00E94990168E572E06B
:1009300080E090E00E943B0282E191E00E946D0223
:10094000C0902B01D0902C01E0902D01F0902E0151
:10095000F7FE13C16DE28FE291E00E942C01222785
:100960003327A9012C193D094E095F0919A2CE01AF
:1009700081967C01CA01B901A30192010E94A307DB
:10098000605DF70162937F01211531054105510535
:1009900089F7E114F10419F0C7010E946D028BE19F
:1009A00091E00E946D028FE191E00E946D0264E689
:1009B00070E080E090E00E943B0280E090E0892BB4
:1009C00009F422CF0E94F600882309F41DCF0E946B
:1009D00000001ACF80922B0190922C01A0922D0141
:1009E000B0922E0160E083E00E94990160E08AE00D
:1009F0000E94990160E084E00E94990160E085E036
:100A00000E94990160E086E00E94990160E087E021
:100A10000E94990160E088E00E94990160E089E00D
:100A20000E94990160E082E00E9499013DCFAC01F3
:100A3000BD014A50510961097109453051056105EF
:100A4000710598F561E083E00E94990161E08AE018
:100A50000E94990161E084E00E94990160E085E0D4
:100A60000E94990160E086E00E94990160E087E0C1
:100A70000E94990160E088E00E94990161E089E0AC
:100A80000E94990161E082E00E94990164E670E0B1
:100A900080E090E00E943B0260E082E00E949901C9
:100AA00068EC70E080E090E045CFAC01BD014550BE
:100AB000510961097109453051056105710598F5C4
:100AC00061E083E00E94990161E08AE00E9499015F
:100AD00061E084E00E94990161E085E00E94990153
:100AE00060E086E00E94990160E087E00E94990141
:100AF00061E088E00E94990161E089E00E9499012B
:100B000061E082E00E94990164E670E080E090E09C
:100B10000E943B0260E082E00E94990166E470E07E
:100B200080E090E007CF0597A105B1050CF004CF58
:100B300061E083E00E94990161E08AE00E949901EE
:100B400061E084E00E94990161E085E00E949901E2
:100B500061E086E00E94990161E087E00E949901CE
:100B600061E088E00E94990161E089E00E949901BA
:100B700061E082E00E949901DFCEA701960119A2EF
:100B8000CE0181967C01CA01B901A30192010E94A4
:100B9000A307605DF70162937F01211531054105CF
:100BA000510589F7F6CEEFE2F1E01382128288EE6A
:100BB00093E0A0E0B0E084839583A683B78384E0CC
:100BC00091E09183808385EC90E09587848784EC25
:100BD00090E09787868780EC90E0918B808B81EC0A
:100BE00090E0938B828B82EC90E0958B848B86ECEB
:100BF00090E0978B868B118E128E138E148E089533
:100C00000E9414060C94FC060E94F50658F00E94FF
:100C1000EE0640F029F45F3F29F00C94E5065111EF
:100C20000C9430070C94EB060E940D0768F399238F
:100C3000B1F3552391F3951B550BBB27AA276217D8
:100C40007307840738F09F5F5F4F220F331F441FE5
:100C5000AA1FA9F335D00E2E3AF0E0E832D0915019
:100C60005040E695001CCAF72BD0FE2F29D0660F06
:100C7000771F881FBB1F261737074807AB07B0E849
:100C800009F0BB0B802DBF01FF2793585F4F3AF04F
:100C90009E3F510578F00C94E5060C9430075F3FB9
:100CA000E4F3983ED4F3869577956795B795F795D5
:100CB0009F5FC9F7880F911D9695879597F90895BD
:100CC000E1E0660F771F881FBB1F62177307840759
:100CD000BA0720F0621B730B840BBA0BEE1F88F768
:100CE000E09508950E9479066894B1110C9430073C
:100CF00008950E94150788F09F5798F0B92F9927FB
:100D0000B751B0F0E1F0660F771F881F991F1AF0F6
:100D1000BA95C9F714C0B13091F00E942F07B1E025
:100D200008950C942F07672F782F8827B85F39F024
:100D3000B93FCCF3869577956795B395D9F73EF48F
:100D400090958095709561957F4F8F4F9F4F089537
:100D5000E89409C097FB3EF4909580957095619555
:100D60007F4F8F4F9F4F9923A9F0F92F96E9BB270B
:100D70009395F695879577956795B795F111F8CF87
:100D8000FAF4BB0F11F460FF1BC06F5F7F4F8F4FF2
:100D90009F4F16C0882311F096E911C0772321F0E8
:100DA0009EE8872F762F05C0662371F096E8862F80
:100DB00070E060E02AF09A95660F771F881FDAF7D7
:100DC000880F9695879597F9089597F99F6780E81A
:100DD00070E060E008959FEF80EC089500240A948D
:100DE0001616170618060906089500240A94121606
:100DF0001306140605060895092E0394000C11F439
:100E0000882352F0BB0F40F4BF2B11F460FF04C0E5
:100E10006F5F7F4F8F4F9F4F089557FD9058440F3E
:100E2000551F59F05F3F71F04795880F97FB991F49
:100E300061F09F3F79F08795089512161306140606
:100E4000551FF2CF4695F1DF08C016161706180693
:100E5000991FF1CF86957105610508940895E8946E
:100E6000BB2766277727CB0197F908950E9449078A
:100E70000C94FC060E94EE0638F00E94F50620F065
:100E8000952311F00C94E5060C94EB0611240C94B8
:100E900030070E940D0770F3959FC1F3950F50E046
:100EA000551F629FF001729FBB27F00DB11D639F1C
:100EB000AA27F00DB11DAA1F649F6627B00DA11DC2
:100EC000661F829F2227B00DA11D621F739FB00D68
:100ED000A11D621F839FA00D611D221F749F3327D8
:100EE000A00D611D231F849F600D211D822F762F71
:100EF0006A2F11249F5750409AF0F1F088234AF04E
:100F0000EE0FFF1FBB1F661F771F881F91505040B9
:100F1000A9F79E3F510580F00C94E5060C9430072C
:100F20005F3FE4F3983ED4F3869577956795B79540
:100F3000F795E7959F5FC1F7FE2B880F911D96955A
:100F4000879597F90895A1E21A2EAA1BBB1BFD01F4
:100F50000DC0AA1FBB1FEE1FFF1FA217B307E40798
:100F6000F50720F0A21BB30BE40BF50B661F771FF0
:100F7000881F991F1A9469F76095709580959095D0
:100F80009B01AC01BD01CF010895EE0FFF1F05903D
:0A0F9000F491E02D0994F894FFCFCE
:100F9A00000000002C018C00B9007901EA00C800A9
:100FAA00DC00557A616B6C696B200020636D000D63
:020FBA000A002B
:107E0000112484B714BE81FFF0D085E080938100F7
:107E100082E08093C00088E18093C10086E0809377
:107E2000C20080E18093C4008EE0C9D0259A86E02C
:107E300020E33CEF91E0309385002093840096BBD3
:107E4000B09BFECF1D9AA8958150A9F7CC24DD24C4
:107E500088248394B5E0AB2EA1E19A2EF3E0BF2EE7
:107E6000A2D0813461F49FD0082FAFD0023811F036
:107E7000013811F484E001C083E08DD089C08234E0
:107E800011F484E103C0853419F485E0A6D080C0E4
:107E9000853579F488D0E82EFF2485D0082F10E0AE
:107EA000102F00270E291F29000F111F8ED06801E7
:107EB0006FC0863521F484E090D080E0DECF843638
:107EC00009F040C070D06FD0082F6DD080E0C81688
:107ED00080E7D80618F4F601B7BEE895C0E0D1E017
:107EE00062D089930C17E1F7F0E0CF16F0E7DF06D8
:107EF00018F0F601B7BEE89568D007B600FCFDCFD4
:107F0000A601A0E0B1E02C9130E011968C91119780
:107F100090E0982F8827822B932B1296FA010C0160
:107F200087BEE89511244E5F5F4FF1E0A038BF0790
:107F300051F7F601A7BEE89507B600FCFDCF97BE46
:107F4000E89526C08437B1F42ED02DD0F82E2BD052
:107F50003CD0F601EF2C8F010F5F1F4F84911BD097
:107F6000EA94F801C1F70894C11CD11CFA94CF0C13
:107F7000D11C0EC0853739F428D08EE10CD085E9AC
:107F80000AD08FE07ACF813511F488E018D01DD067
:107F900080E101D065CF982F8091C00085FFFCCF94
:107FA0009093C60008958091C00087FFFCCF809118
:107FB000C00084FD01C0A8958091C6000895E0E648
:107FC000F0E098E1908380830895EDDF803219F02E
:107FD00088E0F5DFFFCF84E1DECF1F93182FE3DFCA
:107FE0001150E9F7F2DF1F91089580E0E8DFEE27F6
:047FF000FF270994CA
:027FFE00040479
:0400000300007E007B
:00000001FF
