:100000000C9462000C948A000C948A000C948A0070
:100010000C948A000C948A000C948A000C948A0038
:100020000C948A000C948A000C948A000C948A0028
:100030000C948A000C948A000C948A000C948A0018
:100040000C94D2020C948A000C94A0020C947A02B4
:100050000C948A000C948A000C948A000C948A00F8
:100060000C948A000C948A000000000024002700F1
:100070002A0000000000250028002B0000000008D6
:10008000000201000003040700000000000000005F
:1000900000000000230026002900040404040404D6
:1000A0000404020202020202030303030303010227
:1000B00004081020408001020408102001020408F6
:1000C0001020650511241FBECFEFD8E0DEBFCDBFE5
:1000D00011E0A0E0B1E0EEEBFEE002C005900D9271
:1000E000A432B107D9F721E0A4E2B1E001C01D922A
:1000F000AE3CB207E1F710E0C2E6D0E004C02197C1
:10010000FE010E945707C136D107C9F70E9461035B
:100110000C945D070C940000AF92BF92CF92DF92D7
:10012000EF92FF920F931F93CF93DF936C017B01AC
:100130008B01040F151FEB015E01AE18BF08C0173D
:10014000D10759F06991D601ED91FC910190F081B0
:10015000E02DC6010995892B79F7C501DF91CF9173
:100160001F910F91FF90EF90DF90CF90BF90AF90D5
:100170000895FC01538D448D252F30E0842F90E0AD
:10018000821B930B541710F0CF9608950197089592
:10019000FC01918D828D981761F0A28DAE0FBF2F5B
:1001A000B11D5D968C91928D9F5F9F73928F90E0B1
:1001B00008958FEF9FEF0895FC01918D828D981720
:1001C00031F0828DE80FF11D858D90E008958FEF5D
:1001D0009FEF0895FC01918D228D892F90E0805C26
:1001E0009F4F821B91098F739927089581E391E0B6
:1001F0000E94EA0021E0892B09F420E0822F089573
:1002000080E090E0892B29F00E94F60081110C9487
:1002100000000895FC01A48DA80FB92FB11DA35AA9
:10022000BF4F2C91848D90E001968F739927848F16
:10023000A689B7892C93A089B1898C918370806439
:100240008C93938D848D981306C00288F389E02DDA
:1002500080818F7D80830895EF92FF920F931F938B
:10026000CF93DF93EC0181E0888F9B8D8C8D981369
:100270001AC0E889F989808185FF15C09FB7F89475
:10028000EE89FF896083E889F989808183708064C1
:1002900080839FBF81E090E0DF91CF911F910F910C
:1002A000FF90EF900895F62E0B8D10E00F5F1F4F1B
:1002B0000F731127E02E8C8D8E110CC00FB607FC2A
:1002C000FACFE889F989808185FFF5CFCE010E94B8
:1002D0000A01F1CFEB8DEC0FFD2FF11DE35AFF4F1B
:1002E000F0829FB7F8940B8FEA89FB898081806246
:1002F000CFCFCF93DF93EC01888D8823B9F0AA8903
:10030000BB89E889F9898C9185FD03C0808186FDD0
:100310000DC00FB607FCF7CF8C9185FFF2CF80811F
:1003200085FFEDCFCE010E940A01E9CFDF91CF9189
:10033000089590E0FC01E458FF4F2491FC01E25540
:10034000FF4F3491FC01E656FF4FE491EE23C9F0D4
:10035000222339F0233001F1A8F4213019F12230A1
:1003600029F1F0E0EE0FFF1FEE58FF4FA591B49179
:100370008FB7F894EC91611126C030953E233C93E1
:100380008FBF08952730A9F02830C9F0243049F7ED
:10039000809180008F7D03C0809180008F77809353
:1003A0008000DFCF84B58F7784BDDBCF84B58F7DB0
:1003B000FBCF8091B0008F778093B000D2CF809137
:1003C000B0008F7DF9CF3E2BDACFCF93DF9390E053
:1003D000FC01E255FF4F249186569F4FFC0184910A
:1003E0008823D1F090E0880F991FFC01E859FF4F56
:1003F000A591B491FC01EE58FF4FC591D4916111C4
:100400000EC09FB7F8948C91E22FE0958E238C93C9
:100410002881E223E8839FBFDF91CF9108958FB7B2
:10042000F894EC91E22BEC938FBFF6CF3FB7F894A2
:100430008091290190912A01A0912B01B0912C016A
:1004400026B5A89B05C02F3F19F00196A11DB11D2F
:100450003FBFBA2FA92F982F8827BC01CD01620F6B
:10046000711D811D911D42E0660F771F881F991F26
:100470004A95D1F708958F929F92AF92BF92CF92F3
:10048000DF92EF92FF924B015C010E9416026B011A
:100490007C010E9416026C197D098E099F09683E35
:1004A000734081059105A8F321E0821A9108A10803
:1004B000B10888EEC80E83E0D81EE11CF11C81143F
:1004C0009104A104B10429F7FF90EF90DF90CF9041
:1004D000BF90AF909F908F900895FC0101900020F5
:1004E000E9F73197AF01481B590BBC0181E391E05B
:1004F0000C948C001F920F920FB60F9211242F9321
:100500003F934F935F936F937F938F939F93AF939B
:10051000BF93EF93FF9381E391E00E940A01FF9163
:10052000EF91BF91AF919F918F917F916F915F916B
:100530004F913F912F910F900FBE0F901F901895E4
:100540001F920F920FB60F9211242F938F939F93A8
:10055000EF93FF93E0914101F09142018081E0919E
:100560004701F091480182FD1BC0908180914A01B2
:100570008F5F8F7320914B01821741F0E0914A0108
:10058000F0E0EF5CFE4F958F80934A01FF91EF9171
:100590009F918F912F910F900FBE0F901F901895E4
:1005A0008081F4CF1F920F920FB60F9211242F93D8
:1005B0003F938F939F93AF93BF9380912501909129
:1005C0002601A0912701B09128013091240123E058
:1005D000230F2D3758F50196A11DB11D209324013D
:1005E0008093250190932601A0932701B0932801C1
:1005F0008091290190912A01A0912B01B0912C01A9
:100600000196A11DB11D8093290190932A01A09309
:100610002B01B0932C01BF91AF919F918F913F918E
:100620002F910F900FBE0F901F90189526E8230F63
:100630000296A11DB11DD2CFCF92DF92EF92FF9211
:100640000F931F93E82FF92F05C0015011092109BD
:10065000310961F1908196239417B9F305C00150D7
:1006600011092109310911F1908196239413F7CFD3
:10067000C12CD12CE12CF12C0AC08FEFC81AD80A5A
:10068000E80AF80A0C151D052E053F0579F0808152
:100690008623841791F36C2D7D2D8E2D9F2D1F9118
:1006A0000F91FF90EF90DF90CF90089560E070E0A1
:1006B00080E090E01F910F91FF90EF90DF90CF903E
:1006C0000895CF93DF93CDB7DEB7A1970FB6F89417
:1006D000DEBF0FBECDBF789484B5826084BD84B583
:1006E000816084BD85B5826085BD85B5816085BD2D
:1006F00080916E00816080936E00109281008091E5
:10070000810082608093810080918100816080936C
:100710008100809180008160809380008091B10091
:1007200084608093B1008091B00081608093B000BC
:1007300080917A00846080937A0080917A00826050
:1007400080937A0080917A00816080937A00809112
:100750007A00806880937A001092C10061E082E0A4
:100760000E94E50161E08BE00E94E50160E08CE021
:100770000E94E50113E061E0812F0E94E5011F5F07
:100780001B30C9F7E0914101F091420182E0808382
:10079000E0913D01F0913E011082E0913F01F09126
:1007A00040018FEC808310924901E0914501F09166
:1007B000460186E08083E0914301F091440180810D
:1007C00080618083E0914301F091440180818860E1
:1007D0008083E0914301F0914401808180688083AF
:1007E000E0914301F091440180818F7D80839FE0FF
:1007F000E92EF12C23E2C22ED12C3AEB232E30E04D
:10080000332E4AE0842E912CA12CB12C60E08BE099
:100810000E949901C7010197F1F761E08BE00E9406
:100820009901C6010197F1F760E08BE00E94990100
:10083000F1016491E6EAF0E08491E82FF0E0EE0F38
:10084000FF1FE057FF4F8591949100E412E42FE0E1
:1008500030E0462F0E941C0361157105810591054A
:1008600029F06F5F7F4F8F4F9F4F9F700E943C0614
:100870002DEC3CEC48EE51E40E94920520E030E083
:1008800040E05FE30E94C8060E94040660932D01C9
:1008900070932E0180932F01909330016531710583
:1008A000810591056CF013E060E0812F0E949901B1
:1008B0001F5F1B30C9F760E082E00E9499012FC0E2
:1008C000643171058105910551F16F307105810524
:1008D00091050CF472C061E083E00E94990161E02F
:1008E0008AE00E94990114E060E0812F0E94990142
:1008F0001F5F1A30C9F761E082E00E94990164E647
:1009000070E080E090E00E943B0260E082E00E94A4
:10091000990168E572E080E090E00E943B0282E18C
:1009200091E00E946D0240902D0150902E01609048
:100930002F017090300177FEB2C06DE281E391E04B
:100940000E942C0122273327A901241935094609C1
:10095000570919A2CE0181963C01CA01B901A5012E
:1009600094010E943507605DF30162933F012115F8
:1009700031054105510589F76114710419F0C3016E
:100980000E946D028DE191E00E946D0281E291E092
:100990000E946D0264E670E080E090E00E943B02FD
:1009A00080E090E0892B09F431CF0E94F600882383
:1009B00009F42CCF0E94000029CF6A30710581050F
:1009C00091055CF161E083E00E94990161E084E0BF
:1009D0000E94990161E089E00E94990161E08AE04A
:1009E0000E94990115E060E0812F0E9499011F5F2C
:1009F0001930C9F761E082E00E94990164E670E075
:100A000080E090E00E943B0260E082E00E94990159
:100A100068EC70E080E090E080CF13E06530710515
:100A2000810591059CF161E083E00E94990161E0FC
:100A300084E00E94990161E085E00E94990160E0F4
:100A400086E00E94990160E087E00E94990161E0E0
:100A500088E00E94990161E089E00E94990161E0CB
:100A60008AE00E94990161E082E00E94990164E6B7
:100A700070E080E090E00E943B0260E082E00E9433
:100A8000990166E470E080E090E047CF61E0812F5B
:100A90000E9499011F5F1B30C9F761E00DCFA301D0
:100AA000920119A2CE0181963C01CA01B901A501AA
:100AB00094010E943507605DF30162933F012115A7
:100AC00031054105510589F757CFE1E3F1E0138284
:100AD000128288EE93E0A0E0B0E084839583A68341
:100AE000B78384E091E09183808385EC90E09587E3
:100AF000848784EC90E09787868780EC90E0918BE8
:100B0000808B81EC90E0938B828B82EC90E0958BD4
:100B1000848B86EC90E0978B868B118E128E138ED1
:100B2000148E08950E94A6050C948E060E948706D6
:100B300058F00E94800640F029F45F3F29F00C94A1
:100B4000770651110C94C2060C947D060E949F06F4
:100B500068F39923B1F3552391F3951B550BBB27EC
:100B6000AA2762177307840738F09F5F5F4F220F31
:100B7000331F441FAA1FA9F335D00E2E3AF0E0E828
:100B800032D091505040E695001CCAF72BD0FE2F72
:100B900029D0660F771F881FBB1F26173707480706
:100BA000AB07B0E809F0BB0B802DBF01FF279358BE
:100BB0005F4F3AF09E3F510578F00C9477060C9405
:100BC000C2065F3FE4F3983ED4F386957795679528
:100BD000B795F7959F5FC9F7880F911D96958795F3
:100BE00097F90895E1E0660F771F881FBB1F621712
:100BF00073078407BA0720F0621B730B840BBA0BD0
:100C0000EE1F88F7E09508950E940B066894B111D5
:100C10000C94C20608950E94A70688F09F5798F08A
:100C2000B92F9927B751B0F0E1F0660F771F881FF1
:100C3000991F1AF0BA95C9F714C0B13091F00E940B
:100C4000C106B1E008950C94C106672F782F88275C
:100C5000B85F39F0B93FCCF3869577956795B39532
:100C6000D9F73EF490958095709561957F4F8F4FA1
:100C70009F4F0895E89409C097FB3EF490958095A6
:100C8000709561957F4F8F4F9F4F9923A9F0F92F52
:100C900096E9BB279395F695879577956795B795D0
:100CA000F111F8CFFAF4BB0F11F460FF1BC06F5FB6
:100CB0007F4F8F4F9F4F16C0882311F096E911C0C8
:100CC000772321F09EE8872F762F05C0662371F0E9
:100CD00096E8862F70E060E02AF09A95660F771FFD
:100CE000881FDAF7880F9695879597F9089597F9F1
:100CF0009F6780E870E060E008959FEF80EC0895C2
:100D000000240A94161617061806090608950024EA
:100D10000A9412161306140605060895092E039464
:100D2000000C11F4882352F0BB0F40F4BF2B11F4D8
:100D300060FF04C06F5F7F4F8F4F9F4F089557FD37
:100D40009058440F551F59F05F3F71F04795880F39
:100D500097FB991F61F09F3F79F0879508951216D0
:100D600013061406551FF2CF4695F1DF08C016167C
:100D700017061806991FF1CF86957105610508942D
:100D80000895E894BB2766277727CB0197F9089544
:100D90000E94DB060C948E060E94800638F00E94AA
:100DA000870620F0952311F00C9477060C947D06AD
:100DB00011240C94C2060E949F0670F3959FC1F304
:100DC000950F50E0551F629FF001729FBB27F00DF9
:100DD000B11D639FAA27F00DB11DAA1F649F66274E
:100DE000B00DA11D661F829F2227B00DA11D621F9D
:100DF000739FB00DA11D621F839FA00D611D221F57
:100E0000749F3327A00D611D231F849F600D211D3A
:100E1000822F762F6A2F11249F5750409AF0F1F0BD
:100E200088234AF0EE0FFF1FBB1F661F771F881F26
:100E300091505040A9F79E3F510580F00C947706E1
:100E40000C94C2065F3FE4F3983ED4F38695779501
:100E50006795B795F795E7959F5FC1F7FE2B880FCC
:100E6000911D9695879597F90895A1E21A2EAA1BD0
:100E7000BB1BFD010DC0AA1FBB1FEE1FFF1FA2174A
:100E8000B307E407F50720F0A21BB30BE40BF50B47
:100E9000661F771F881F991F1A9469F760957095D0
:100EA000809590959B01AC01BD01CF010895EE0F97
:0E0EB000FF1F0590F491E02D0994F894FFCFF8
:100EBE00000000002C018C00B9007901EA00C80086
:100ECE00DC0044697374616E63653A200020636DC3
:040EDE00000D0A00F9
:107E0000112484B714BE81FFF0D085E080938100F7
:107E100082E08093C00088E18093C10086E0809377
:107E2000C20080E18093C4008EE0C9D0259A86E02C
:107E300020E33CEF91E0309385002093840096BBD3
:107E4000B09BFECF1D9AA8958150A9F7CC24DD24C4
:107E500088248394B5E0AB2EA1E19A2EF3E0BF2EE7
:107E6000A2D0813461F49FD0082FAFD0023811F036
:107E7000013811F484E001C083E08DD089C08234E0
:107E800011F484E103C0853419F485E0A6D080C0E4
:107E9000853579F488D0E82EFF2485D0082F10E0AE
:107EA000102F00270E291F29000F111F8ED06801E7
:107EB0006FC0863521F484E090D080E0DECF843638
:107EC00009F040C070D06FD0082F6DD080E0C81688
:107ED00080E7D80618F4F601B7BEE895C0E0D1E017
:107EE00062D089930C17E1F7F0E0CF16F0E7DF06D8
:107EF00018F0F601B7BEE89568D007B600FCFDCFD4
:107F0000A601A0E0B1E02C9130E011968C91119780
:107F100090E0982F8827822B932B1296FA010C0160
:107F200087BEE89511244E5F5F4FF1E0A038BF0790
:107F300051F7F601A7BEE89507B600FCFDCF97BE46
:107F4000E89526C08437B1F42ED02DD0F82E2BD052
:107F50003CD0F601EF2C8F010F5F1F4F84911BD097
:107F6000EA94F801C1F70894C11CD11CFA94CF0C13
:107F7000D11C0EC0853739F428D08EE10CD085E9AC
:107F80000AD08FE07ACF813511F488E018D01DD067
:107F900080E101D065CF982F8091C00085FFFCCF94
:107FA0009093C60008958091C00087FFFCCF809118
:107FB000C00084FD01C0A8958091C6000895E0E648
:107FC000F0E098E1908380830895EDDF803219F02E
:107FD00088E0F5DFFFCF84E1DECF1F93182FE3DFCA
:107FE0001150E9F7F2DF1F91089580E0E8DFEE27F6
:047FF000FF270994CA
:027FFE00040479
:0400000300007E007B
:00000001FF
